:100000000C9455000C9474000C9474000C947400BF
:100010000C9474000C9474000C9474000C94740090
:100020000C9474000C9474000C9474000C94740080
:100030000C9474000C9474000C9474000C94740070
:100040000C9474000C9474000C9474000C94740060
:100050000C9474000C9474000C9474000C94740050
:100060000C9474000C9474000C9474000C94740040
:100070000C9474000C9474000C9474000C94740030
:100080000C9474000C9474000C947400B900C000BB
:10009000DA00080136016C01A201D801230229020D
:1000A0002D02310238023C02400211241FBECFEF64
:1000B000D0E4DEBFCDBF11E0A0E0B1E0E2E4F5E0C6
:1000C00000E00BBF02C007900D92AE30B107D9F728
:1000D00011E0AEE0B1E001C01D92A631B107E1F739
:1000E0000E9448020C949F020C940000CF93DF936F
:1000F00000D01F92CDB7DEB789837B836A83898165
:100100008A3031F48A819B81BC018DE00E947600A7
:1001100080EC90E0FC018081882F90E0807299272C
:100120000097B1F386EC90E02981FC01208380E008
:1001300090E00F900F900F90DF91CF910895CF93A3
:10014000DF93CDB7DEB78091140190911501CC01FA
:10015000A0E0B0E040E050E027E030E0841B950BE9
:100160002817390708F45AC18A5B9F4FFC010C9489
:10017000960281E090E090931501809314014EC1A6
:1001800080910E01882379F480910F01882359F41E
:1001900080911001882339F082E090E0909315015E
:1001A000809314013BC181E090E09093150180930E
:1001B000140134C180910E01882379F480910F01DC
:1001C000882359F480911001882339F483E090E06A
:1001D00090931501809314011AC080910E01882319
:1001E00079F480910F01882359F4809110018823BC
:1001F00039F082E090E0909315018093140107C0DC
:1002000081E090E0909315018093140107C106C12D
:1002100080910E01882379F480910F01882359F091
:1002200080911001882339F484E090E090931501C7
:10023000809314011AC080910E01882379F4809173
:100240000F01882359F480911001882339F483E049
:1002500090E0909315018093140107C081E090E035
:100260009093150180931401D9C0D8C080911101D9
:10027000882399F080910E01882379F480910F01F1
:10028000882359F480911001882339F481E090E0AB
:1002900090931501809314011EC080910E01882354
:1002A00099F480910F01882379F4809110018823BB
:1002B00059F480911101882339F485E090E09093FE
:1002C00015018093140107C084E090E0909315011C
:1002D00080931401A3C0A2C080911101882399F0DA
:1002E00080910E01882379F480910F01882359F4BD
:1002F00080911001882339F481E090E090931501FA
:10030000809314011EC080910E01882399F480917E
:100310000F01882379F480911001882359F080918E
:100320001101882339F486E090E0909315018093C1
:10033000140107C085E090E09093150180931401AB
:100340006DC06CC080910E01882399F480910F01DB
:10035000882379F480911001882359F48091110148
:10036000882339F487E090E090931501809314017D
:100370001EC080910E01882399F480910F0188237B
:1003800079F480911001882359F08091110188231C
:1003900039F486E090E0909315018093140107C032
:1003A00085E090E0909315018093140137C036C02A
:1003B00080910E01882399F480910F01882379F0B0
:1003C00080911001882359F480911101882339F418
:1003D00081E090E090931501809314011EC08091FC
:1003E0000E01882399F480910F01882379F480917C
:1003F0001001882359F480911101882339F487E092
:1004000090E0909315018093140107C085E090E07F
:10041000909315018093140100C000008091140195
:1004200090911501CC01A0E0B0E041E050E026E061
:1004300030E0841B950B2817390730F1825B9F4F02
:10044000FC010C9496021092120181E0809313013A
:100450001CC082E08093130118C083E080931301D5
:1004600014C081E08093120184E0809313010DC0D9
:1004700085E08093130109C086E08093130105C0D5
:1004800087E08093130101C00000DF91CF910895B0
:10049000CF93DF93CDB7DEB781E290E0FC0110820D
:1004A00082E290E02FEFFC01208384E290E02FEFC6
:1004B000FC01208385E290E0FC01108287E290E05D
:1004C0002FEFFC01208388E290E0FC011082109263
:1004D00015011092140180E290E0FC01808181708E
:1004E00080930E0180E290E0FC0180818270809315
:1004F0000F0180E290E0FC01808184708093100104
:1005000080E290E0FC0180818078809311010E945C
:100510009F0085E290E020911201FC01208388E297
:1005200090E020911301FC012083D5CFEE0FFF1F37
:100530000024001C0BBE0790F691E02D0994F8945E
:02054000FFCFEB
:0E054200000000020000000076000000000033
:00000001FF
