:100000000C9446000C9465000C9465000C946500FB
:100010000C9465000C9465000C9465000C946500CC
:100020000C9465000C9465000C9465000C946500BC
:100030000C9465000C9465000C9465000C946500AC
:100040000C9465000C9465000C9465000C9465009C
:100050000C9465000C9465000C9465000C9465008C
:100060000C9465000C9465000C9465000C9465007C
:100070000C9465000C9465000C9465000C9465006C
:100080000C9465000C9465000C94650011241FBE4F
:10009000CFEFD0E4DEBFCDBF11E0A0E0B1E0E4E1FE
:1000A000F2E000E00BBF02C007900D92A631B1074D
:1000B000D9F711E0A6E1B1E001C01D92A931B10765
:1000C000E1F70E94EF000C9408010C940000CF931C
:1000D000DF9300D01F92CDB7DEB789837B836A831D
:1000E00089818A3031F48A819B81BC018DE00E9434
:1000F000670080EC90E0FC018081882F90E08072A6
:1001000099270097B1F386EC90E02981FC012083C8
:1001100080E090E00F900F900F90DF91CF910895C5
:10012000CF93DF93CDB7DEB780911701909118017F
:100130008130910571F08130910520F08230910578
:1001400071F134C081E090E0909318018093170121
:100150002DC01092160180E290E0FC018081882F72
:1001600090E09C012770332780911601882F90E042
:10017000825F9E4FFC018081882F90E0281739070D
:1001800039F482E090E090931801809317010EC03B
:1001900081E090E0909318018093170107C082E0FE
:1001A00090E090931801809317010000809117014F
:1001B000909118018130910521F08230910531F044
:1001C0000BC085E290E0FC01108206C085E290E061
:1001D00021E0FC0120830000DF91CF910895CF93AF
:1001E000DF93CDB7DEB781E290E0FC01108282E2BE
:1001F00090E02FEFFC01208384E290E02FEFFC01E0
:10020000208385E290E0FC0110820E949000FDCFE7
:04021000F894FFCF90
:10021400000000020000000067000000000004006D
:06022400010002000100D0
:00000001FF
