:100000000C9446000C9465000C9465000C946500FB
:100010000C9465000C9465000C9465000C946500CC
:100020000C9465000C9465000C9465000C946500BC
:100030000C9465000C9465000C9465000C946500AC
:100040000C9465000C9465000C9465000C9465009C
:100050000C9465000C9465000C9465000C9465008C
:100060000C9465000C9465000C9465000C9465007C
:100070000C9465000C9465000C9465000C9465006C
:100080000C9465000C9465000C94650011241FBE4F
:10009000CFEFD0E4DEBFCDBF11E0A0E0B1E0ECE0F7
:1000A000F5E000E00BBF02C007900D92A631B1074A
:1000B000D9F711E0A6E1B1E001C01D92A931B10765
:1000C000E1F70E946B020C9484020C940000CF9321
:1000D000DF9300D01F92CDB7DEB789837B836A831D
:1000E00089818A3031F48A819B81BC018DE00E9434
:1000F000670080EC90E0FC018081882F90E08072A6
:1001000099270097B1F386EC90E02981FC012083C8
:1001100080E090E00F900F900F90DF91CF910895C5
:10012000CF93DF93CDB7DEB780911701909118017F
:100130008230910509F443C08330910530F4009773
:1001400089F081309105A9F08EC18430910509F4C0
:10015000D9C08430910508F4AAC08530910509F40E
:100160000AC181C181E090E090931801809317014A
:100170007AC11092160180E290E0FC018081882F04
:1001800090E09C012770332780911601882F90E022
:10019000825F9E4FFC018081882F90E028173907ED
:1001A00039F482E090E090931801809317015BC1CD
:1001B00081E090E0909318018093170154C180E290
:1001C00090E0FC018081882F90E09C01277033270C
:1001D00080911601882F90E0825F9E4FFC01808104
:1001E000882F90E02817390739F482E090E0909347
:1001F0001801809317015AC080911601853049F586
:10020000809116018F5F8093160180E290E0FC01DF
:100210008081882F90E09C01277033278091160100
:10022000882F90E0825F9E4FFC018081882F90E0B4
:100230002817390739F483E090E0909318018093F0
:10024000170134C081E090E090931801809317016A
:100250000AC180911601863048F5809116018F5FA2
:100260008093160180E290E0FC018081882F90E06D
:100270009C012770332780911601882F90E0825FC0
:100280009E4FFC018081882F90E02817390739F4B0
:1002900082E090E0909318018093170107C081E0FD
:1002A00090E09093180180931701DDC0DCC080E2DC
:1002B00090E0FC018081882F90E087789927803832
:1002C000910539F481E090E0909318018093170133
:1002D00018C080E290E0FC018081882F90E0877850
:1002E0009927009739F484E090E090931801809367
:1002F000170107C083E090E09093180180931701E5
:10030000B2C0B1C080E290E0FC018081882F90E013
:10031000877899278038910539F481E090E09093AF
:1003200018018093170126C01092160180E290E018
:10033000FC018081882F90E09C01277833278091F1
:100340001601882F90E0825F9E4FFC018081882FEC
:1003500090E02817390739F485E090E09093180170
:100360008093170107C084E090E090931801809378
:10037000170179C078C080E290E0FC018081882F6D
:1003800090E09C012778332780911601882F90E018
:10039000825F9E4FFC018081882F90E028173907EB
:1003A00039F485E090E090931801809317015AC0CA
:1003B00080911601853049F5809116018F5F8093F9
:1003C000160180E290E0FC018081882F90E09C0182
:1003D0002778332780911601882F90E0825F9E4F07
:1003E000FC018081882F90E02817390739F481E0DB
:1003F00090E0909318018093170134C084E090E05E
:1004000090931801809317012DC0809116018630BA
:1004100048F5809116018F5F8093160180E290E08D
:10042000FC018081882F90E09C0127783327809100
:100430001601882F90E0825F9E4FFC018081882FFB
:1004400090E02817390739F485E090E0909318017F
:100450008093170107C084E090E090931801809387
:10046000170100C00000809117019091180183309E
:100470009105E1F08430910538F48130910559F00F
:100480008230910569F024C084309105A9F085304F
:100490009105C1F01DC085E290E0FC01108218C0FA
:1004A00085E290E021E0FC01208312C085E290E02B
:1004B00022E0FC0120830CC085E290E023E0FC01F7
:1004C000208306C085E290E024E0FC012083000048
:1004D000DF91CF910895CF93DF93CDB7DEB781E25F
:1004E00090E0FC01108282E290E02FEFFC0120837B
:1004F00084E290E02FEFFC01208385E290E0FC0194
:0C05000010820E949000FDCFF894FFCF05
:10050C000000000200000000670000000000040072
:06051C00010002000100D5
:00000001FF
