:100000000C9455000C9474000C9474000C947400BF
:100010000C9474000C9474000C9474000C94740090
:100020000C9474000C9474000C9474000C94740080
:100030000C9474000C9474000C9474000C94740070
:100040000C9474000C9474000C9474000C94740060
:100050000C9474000C9474000C9474000C94740050
:100060000C9474000C9474000C9474000C94740040
:100070000C9474000C9474000C9474000C94740030
:100080000C9474000C9474000C947400B900C000BB
:10009000F5002A015F015F01F5002A01A5018A012F
:1000A0009501A001A501A501A50111241FBECFEF57
:1000B000D0E4DEBFCDBF11E0A0E0B1E0EAEDF3E0B7
:1000C00000E00BBF02C007900D92AE30B107D9F728
:1000D00011E0AEE0B1E001C01D92A331B107E1F73C
:1000E0000E94A9010C94EB010C940000CF93DF93C4
:1000F00000D01F92CDB7DEB789837B836A83898165
:100100008A3031F48A819B81BC018DE00E947600A7
:1001100080EC90E0FC018081882F90E0807299272C
:100120000097B1F386EC90E02981FC01208380E008
:1001300090E00F900F900F90DF91CF910895CF93A3
:10014000DF93CDB7DEB78091110190911201CC0100
:10015000A0E0B0E040E050E027E030E0841B950BE9
:100160002817390708F4C1C08A5B9F4FFC010C9423
:10017000E20181E090E09093120180931101B5C0FB
:1001800080910E01882359F080910F01882339F066
:1001900084E090E0909312018093110125C080913A
:1001A0000E01882359F080910F01882339F482E0F1
:1001B00090E0909312018093110116C080910E017E
:1001C000882359F480910F01882339F083E090E06F
:1001D000909312018093110107C081E090E0909309
:1001E00012018093110181C080C080910E0188238B
:1001F00059F080910F01882339F084E090E09093CA
:1002000012018093110125C080910E01882359F4B9
:1002100080910F01882339F481E090E090931201DE
:100220008093110116C080910E01882359F48091AA
:100230000F01882339F083E090E0909312018093BE
:10024000110107C086E090E09093120180931101A4
:100250004CC04BC080910E01882359F080910F0152
:10026000882339F084E090E090931201809311018B
:1002700025C080910E01882359F480910F018823B5
:1002800039F481E090E0909312018093110116C03F
:1002900080910E01882359F080910F01882339F451
:1002A00082E090E0909312018093110107C087E0F3
:1002B00090E0909312018093110117C016C08091B5
:1002C0000E01882359F480910F01882339F481E0CD
:1002D00090E0909312018093110106C085E090E0B8
:1002E000909312018093110100008091110190916F
:1002F0001201CC01A0E0B0E041E050E026E030E0A7
:10030000841B950B28173907F0F0825B9F4FFC0187
:100310000C94E20180911001893030F48091100139
:100320008F5F8093100112C011C08091100188234B
:1003300031F08091100181508093100107C006C0F8
:100340001092100103C0000001C00000DF91CF91A6
:100350000895CF93DF93CDB7DEB781E290E0FC0143
:10036000108282E290E02FEFFC01208387E290E090
:100370002FEFFC01208388E290E0FC01108287E0EF
:1003800080931001109212011092110180E290E00E
:10039000FC018081817080930E0180E290E0FC017D
:1003A0008081827080930F0180910F0186958093E8
:1003B0000F010E949F0088E290E020911001FC0153
:1003C0002083E4CFEE0FFF1F0024001C0BBE07901C
:0A03D000F691E02D0994F894FFCF98
:0E03DA0000000002000000007600000000009D
:00000001FF
