:100000000C9446000C9465000C9465000C946500FB
:100010000C9465000C9465000C9465000C946500CC
:100020000C9465000C9465000C9465000C946500BC
:100030000C9465000C9465000C9465000C946500AC
:100040000C9465000C9465000C9465000C9465009C
:100050000C9465000C9465000C9465000C9465008C
:100060000C9465000C9465000C9465000C9465007C
:100070000C9465000C9465000C9465000C9465006C
:100080000C9465000C9465000C94650011241FBE4F
:10009000CFEFD0E4DEBFCDBF11E0A0E0B1E0EEE1F4
:1000A000F3E000E00BBF02C007900D92A631B1074C
:1000B000D9F711E0A6E1B1E001C01D92A931B10765
:1000C000E1F70E9474010C948D010C940000CF9311
:1000D000DF9300D01F92CDB7DEB789837B836A831D
:1000E00089818A3031F48A819B81BC018DE00E9434
:1000F000670080EC90E0FC018081882F90E08072A6
:1001000099270097B1F386EC90E02981FC012083C8
:1001100080E090E00F900F900F90DF91CF910895C5
:10012000CF93DF93CDB7DEB780911701909118017F
:100130008130910591F08130910540F08230910538
:1001400091F18330910509F4A6C0ACC081E090E044
:100150009093180180931701A5C01092160180E2B8
:1001600090E0FC018081882F90E09C01277033276C
:1001700080911601882F90E0825F9E4FFC01808164
:10018000882F90E02817390739F482E090E09093A7
:1001900018018093170186C081E090E090931801C8
:1001A000809317017FC080E290E0FC018081882F5E
:1001B00090E09C012770332780911601882F90E0F2
:1001C000825F9E4FFC018081882F90E028173907BD
:1001D00039F482E090E090931801809317015AC09F
:1001E00080911601853049F5809116018F5F8093CB
:1001F000160180E290E0FC018081882F90E09C0154
:100200002770332780911601882F90E0825F9E4FE0
:10021000FC018081882F90E02817390739F483E0AA
:1002200090E0909318018093170134C081E090E032
:10023000909318018093170135C080911601863084
:1002400048F5809116018F5F8093160180E290E05F
:10025000FC018081882F90E09C01277033278091DA
:100260001601882F90E0825F9E4FFC018081882FCD
:1002700090E02817390739F482E090E09093180154
:100280008093170107C081E090E09093180180935C
:10029000170108C007C083E090E090931801809395
:1002A000170100008091170190911801823091058B
:1002B00061F08330910579F08130910509F011C02A
:1002C00085E290E0FC0110820CC085E290E021E024
:1002D000FC01208306C085E290E022E0FC0120833F
:1002E0000000DF91CF910895CF93DF93CDB7DEB7B4
:1002F00081E290E0FC01108282E290E02FEFFC01AD
:10030000208384E290E02FEFFC01208385E290E0DF
:0E031000FC0110820E949000FDCFF894FFCFF8
:10031E000000000200000000670000000000040062
:06032E00010002000100C5
:00000001FF
