:100000000C9446000C9465000C9465000C946500FB
:100010000C9465000C9465000C9465000C946500CC
:100020000C9465000C9465000C9465000C946500BC
:100030000C9465000C9465000C9465000C946500AC
:100040000C9465000C9465000C9465000C9465009C
:100050000C9465000C9465000C9465000C9465008C
:100060000C9465000C9465000C9465000C9465007C
:100070000C9465000C9465000C9465000C9465006C
:100080000C9465000C9465000C94650011241FBE4F
:10009000CFEFD0E4DEBFCDBF11E0A0E0B1E0EAE8F1
:1000A000F3E000E00BBF02C007900D92AE30B10745
:1000B000D9F711E0AEE0B1E001C01D92A631B10761
:1000C000E1F70E9475010C94C3010C940000CF93DA
:1000D000DF9300D01F92CDB7DEB789837B836A831D
:1000E00089818A3031F48A819B81BC018DE00E9434
:1000F000670080EC90E0FC018081882F90E08072A6
:1001000099270097B1F386EC90E02981FC012083C8
:1001100080E090E00F900F900F90DF91CF910895C5
:10012000CF93DF93CDB7DEB7809114019091150185
:100130008230910599F18330910530F4009769F090
:100140008130910589F0A4C08330910509F454C031
:100150008430910509F47EC09BC081E090E09093CB
:1001600015018093140194C080910E01882379F4C5
:1001700080910F01882359F480911001882339F070
:1001800082E090E0909315018093140181C081E09A
:1001900090E090931501809314017AC080910E0134
:1001A000882379F480910F01882359F480911001FC
:1001B000882339F483E090E0909315018093140133
:1001C0001AC080910E01882379F480910F01882351
:1001D00059F480911001882339F082E090E09093E7
:1001E00015018093140107C081E090E09093150100
:1001F000809314014DC04CC080910E01882379F486
:1002000080910F01882359F080911001882339F4DF
:1002100084E090E090931501809314011AC08091BE
:100220000E01882379F480910F01882359F480917D
:100230001001882339F483E090E0909315018093B6
:10024000140107C081E090E09093150180931401A0
:100250001FC01EC080911101882399F080910E016A
:10026000882379F480910F01882359F4809110013B
:10027000882339F481E090E0909315018093140174
:1002800006C084E090E09093150180931401000073
:10029000809114019091150182309105A1F0833075
:1002A000910520F48130910541F01CC08330910507
:1002B00071F08430910579F015C01092120181E03F
:1002C000809313010FC082E0809313010BC083E081
:1002D0008093130107C081E08093120184E0809332
:1002E00013010000DF91CF910895CF93DF93CDB735
:1002F000DEB781E290E0FC01108282E290E02FEF15
:10030000FC01208384E290E02FEFFC01208385E252
:1003100090E0FC01108287E290E02FEFFC01208347
:1003200088E290E0FC0110821092150110921401F5
:1003300080E290E0FC018081817080930E0180E278
:1003400090E0FC018081827080930F0180E290E058
:10035000FC01808184708093100180E290E0FC01B8
:1003600080818078809311010E94900085E290E066
:1003700020911201FC01208388E290E0209113017A
:0A038000FC012083D5CFF894FFCFD5
:0E038A000000000200000000670000000000FC
:00000001FF
