:100000000C9446000C9465000C9465000C946500FB
:100010000C9465000C9465000C9465000C946500CC
:100020000C9465000C9465000C9465000C946500BC
:100030000C9465000C9465000C9465000C946500AC
:100040000C9465000C9465000C9465000C9465009C
:100050000C9465000C9465000C9465000C9465008C
:100060000C9465000C9465000C9465000C9465007C
:100070000C9465000C9465000C9465000C9465006C
:100080000C9465000C9465000C94650011241FBE4F
:10009000CFEFD0E4DEBFCDBF11E0A0E0B1E0EEE9EC
:1000A000F2E000E00BBF02C007900D92AE30B10746
:1000B000D9F711E0AEE0B1E001C01D92A231B10765
:1000C000E1F70E9423010C944D010C940000CF93A2
:1000D000DF9300D01F92CDB7DEB789837B836A831D
:1000E00089818A3031F48A819B81BC018DE00E9434
:1000F000670080EC90E0FC018081882F90E08072A6
:1001000099270097B1F386EC90E02981FC012083C8
:1001100080E090E00F900F900F90DF91CF910895C5
:10012000CF93DF93CDB7DEB780911001909111018D
:100130008230910551F18330910530F4009761F0E0
:100140008130910581F057C08330910581F1843071
:10015000910509F43EC04FC081E090E090931101F9
:10016000809310014DC080910E01813039F482E0FE
:1001700090E0909311018093100142C081E090E0E3
:1001800090931101809310013BC080910E01882350
:1001900039F483E090E0909311018093100130C016
:1001A00082E090E0909311018093100129C080912A
:1001B0000E01813039F484E090E090931101809336
:1001C00010011EC083E090E0909311018093100114
:1001D00017C080910E01882339F481E090E090935C
:1001E0001101809310010CC084E090E09093110104
:1001F0008093100105C010921101109210010000AF
:10020000809110019091110182309105B1F08330FD
:10021000910520F48130910541F012C083309105A1
:1002200041F08430910559F00BC081E080930F01BB
:1002300007C082E080930F0103C0000001C00000EE
:10024000DF91CF910895CF93DF93CDB7DEB781E2F1
:1002500090E0FC01108282E290E02FEFFC0120830D
:1002600084E290E02FEFFC01208385E290E0FC0126
:100270001082109211011092100180E290E0FC01B6
:100280008081817080930E010E94900085E290E051
:0E02900020910F01FC012083F0CFF894FFCFE6
:0E029E000000000200000000670000000000E9
:00000001FF
