:100000000C9446000C945D000C945D000C945D0013
:100010000C945D000C945D000C945D000C945D00EC
:100020000C945D000C945D000C945D000C945D00DC
:100030000C945D000C945D000C945D000C945D00CC
:100040000C945D000C945D000C945D000C945D00BC
:100050000C945D000C945D000C945D000C945D00AC
:100060000C945D000C945D000C945D000C945D009C
:100070000C945D000C945D000C945D000C945D008C
:100080000C945D000C945D000C945D0011241FBE67
:10009000CFEFD0E4DEBFCDBF11E0A0E0B1E0E0EEF5
:1000A000F1E000E00BBF02C007900D92AE30B10747
:1000B000D9F70E9488000C94EE000C940000CF93B6
:1000C000DF9300D01F92CDB7DEB789837B836A832D
:1000D00089818A3031F48A819B81BC018DE00E9444
:1000E0005F0080EC90E0FC018081882F90E08072BE
:1000F00099270097B1F386EC90E02981FC012083D9
:1001000080E090E00F900F900F90DF91CF910895D5
:10011000CF93DF9300D000D01F92CDB7DEB781E23E
:1001200090E0FC01108282E290E02FEFFC0120833E
:1001300084E290E0FC01108285E290E02FEFFC0168
:10014000208387E290E02FEFFC01208388E290E09B
:10015000FC0110821B821C821D8280E290E0FC0167
:1001600080818B8383E290E0FC0180818C83198203
:100170001A822BC08B81882F90E02A81222F30E0B9
:10018000022E02C0959587950A94E2F781708D83BF
:100190008D81882319F089818F5F89838C81882FD5
:1001A00090E02A81222F30E0022E02C0959587959B
:1001B0000A94E2F781708D838D81882319F08981FB
:1001C0008F5F89838A818F5F8A838A81883090F2EA
:1001D00088E290E02981FC012083BFCFF894FFCF13
:0E01E00000000002000000005F0000000000B0
:00000001FF
