:100000000C9446000C945D000C945D000C945D0013
:100010000C945D000C945D000C945D000C945D00EC
:100020000C945D000C945D000C945D000C945D00DC
:100030000C945D000C945D000C945D000C945D00CC
:100040000C945D000C945D000C945D000C945D00BC
:100050000C945D000C945D000C945D000C945D00AC
:100060000C945D000C945D000C945D000C945D009C
:100070000C945D000C945D000C945D000C945D008C
:100080000C945D000C945D000C945D0011241FBE67
:10009000CFEFD0E4DEBFCDBF11E0A0E0B1E0E8EAF1
:1000A000F1E000E00BBF02C007900D92AE30B10747
:1000B000D9F70E9488000C94D2000C940000CF93D2
:1000C000DF9300D01F92CDB7DEB789837B836A832D
:1000D00089818A3031F48A819B81BC018DE00E9444
:1000E0005F0080EC90E0FC018081882F90E08072BE
:1000F00099270097B1F386EC90E02981FC012083D9
:1001000080E090E00F900F900F90DF91CF910895D5
:10011000CF93DF9300D01F92CDB7DEB784E290E09B
:100120002EEFFC01208385E290E021E0FC0120839A
:100130008AE290E0FC0110828BE290E02FEFFC015C
:1001400020831A821B8283E290E0FC01808181700F
:100150008A8389E290E0FC0180818B8319828A8105
:10016000882319F48B81863430F48A81813031F40C
:100170008B81853418F082E089830EC08A818823C0
:1001800019F48B81863030F48A81813029F48B8197
:10019000853010F084E0898385E290E02981FC01BC
:0801A0002083D1CFF894FFCFBA
:0E01A80000000002000000005F0000000000E8
:00000001FF
