:100000000C9455000C9474000C9474000C947400BF
:100010000C9474000C9474000C9474000C94740090
:100020000C9474000C9474000C9474000C94740080
:100030000C9474000C9474000C9474000C94740070
:100040000C9474000C9474000C9474000C94740060
:100050000C9474000C9474000C9474000C94740050
:100060000C9474000C9474000C9474000C94740040
:100070000C9474000C9474000C9474000C94740030
:100080000C9474000C9474000C947400B900C000BB
:10009000F5002301510167019501C3010D02110211
:1000A0001C0227022C022C022C0211241FBECFEFAF
:1000B000D0E4DEBFCDBF11E0A0E0B1E0E2EEF4E0BD
:1000C00000E00BBF02C007900D92AE30B107D9F728
:1000D00011E0AEE0B1E001C01D92A331B107E1F73C
:1000E0000E9430020C946F020C940000CF93DF93B7
:1000F00000D01F92CDB7DEB789837B836A83898165
:100100008A3031F48A819B81BC018DE00E947600A7
:1001100080EC90E0FC018081882F90E0807299272C
:100120000097B1F386EC90E02981FC01208380E008
:1001300090E00F900F900F90DF91CF910895CF93A3
:10014000DF93CDB7DEB78091110190911201CC0100
:10015000A0E0B0E040E050E027E030E0841B950BE9
:100160002817390708F444C18A5B9F4FFC010C949F
:10017000660281E090E0909312018093110138C1F2
:1001800080910E01882359F080910F01882339F462
:1001900082E090E0909312018093110125C080913C
:1001A0000E01882359F480910F01882339F083E0F0
:1001B00090E0909312018093110116C080910E017E
:1001C000882359F080910F01882339F084E090E072
:1001D000909312018093110107C081E090E0909309
:1001E00012018093110104C103C180910E01882383
:1001F00059F480910F01882339F487E090E09093BF
:100200001201809311011EC080910E01813059F4BA
:1002100080910F01882339F485E090E090931201DA
:10022000809311010FC080910E01813059F48091AB
:100230000F01813039F484E090E0909312018093B3
:100240001101D6C0D5C080910E01882359F4809148
:100250000F01882339F487E090E090931201809396
:1002600011011EC080910E01882359F480910F0165
:10027000813039F486E090E090931201809311016F
:100280000FC080910E01813059F480910F018130AF
:1002900039F484E090E09093120180931101A8C09A
:1002A000A7C080910E01882359F480910F01882303
:1002B00039F487E090E0909312018093110198C087
:1002C00084E090E0909312018093110191C080919D
:1002D0000E01813059F480910F01882339F485E0B3
:1002E00090E090931201809311011EC080910E0145
:1002F000813059F480910F01813039F484E090E02D
:1003000090931201809311010FC080910E018823F8
:1003100059F480910F01882339F487E090E090939D
:1003200012018093110164C063C080910E01882383
:1003300059F480910F01813039F486E090E0909378
:100340001201809311011EC080910E01813059F479
:1003500080910F01813039F484E090E09093120194
:10036000809311010FC080910E01882359F4809170
:100370000F01882339F487E090E090931201809375
:10038000110136C035C080910E01813059F4809141
:100390000F01882339F482E090E09093120180935A
:1003A000110125C080910E01882359F480910F011D
:1003B000813039F483E090E0909312018093110131
:1003C00016C080910E01813059F480910F01813067
:1003D00039F484E090E0909312018093110107C0FA
:1003E00087E090E0909312018093110100C000001B
:1003F0008091110190911201CC01A0E0B0E041E0A8
:1004000050E026E030E0841B950B2817390710F1E7
:10041000825B9F4FFC010C94660287E08093100181
:100420001CC080911001893030F4809110018F5FE1
:100430008093100112C011C080911001882331F007
:100440008091100181508093100107C006C0109266
:10045000100103C0000001C00000DF91CF9108959A
:10046000CF93DF93CDB7DEB781E290E0FC0110823D
:1004700082E290E02FEFFC01208387E290E02FEFF3
:10048000FC01208388E290E0FC01108210921201AE
:100490001092110180E290E0FC01808181708093D4
:1004A0000E0180E290E0FC018081827080930F0158
:1004B00080910F01869580930F010E949F0088E232
:1004C00090E020911001FC012083E4CFEE0FFF1F8C
:1004D0000024001C0BBE0790F691E02D0994F894BF
:0204E000FFCF4C
:0E04E200000000020000000076000000000094
:00000001FF
