:100000000C944D000C946C000C946C000C946C00DF
:100010000C946C000C946C000C946C000C946C00B0
:100020000C946C000C946C000C946C000C946C00A0
:100030000C946C000C946C000C946C000C946C0090
:100040000C946C000C946C000C946C000C946C0080
:100050000C946C000C946C000C946C000C946C0070
:100060000C946C000C946C000C946C000C946C0060
:100070000C946C000C946C000C946C000C946C0050
:100080000C946C000C946C000C946C00B100B800E3
:10009000D000E80000011801300111241FBECFEF8D
:1000A000D0E4DEBFCDBF11E0A0E0B1E0E8E5F3E0D1
:1000B00000E00BBF02C007900D92AE30B107D9F738
:1000C00011E0AEE0B1E001C01D92A031B107E1F74F
:1000D0000E9484010C94AA010C940000CF93DF933A
:1000E00000D01F92CDB7DEB789837B836A83898175
:1000F0008A3031F48A819B81BC018DE00E946E00C0
:1001000080EC90E0FC018081882F90E0807299273C
:100110000097B1F386EC90E02981FC01208380E018
:1001200090E00F900F900F90DF91CF910895CF93B3
:10013000DF93CDB7DEB780910E0190910F01CC0116
:10014000A0E0B0E040E050E026E030E0841B950BFA
:100150002817390708F49CC08A5B9F4FFC010C9458
:10016000A10181E090E090930F0180930E0190C077
:1001700080E290E0FC018081882F90E081709927D7
:10018000009739F482E090E090930F0180930E0184
:100190007FC081E090E090930F0180930E0178C0C2
:1001A00080E290E0FC018081882F90E081709927A7
:1001B000009739F083E090E090930F0180930E0157
:1001C00067C082E090E090930F0180930E0160C0C1
:1001D00080E290E0FC018081882F90E08170992777
:1001E000009739F484E090E090930F0180930E0122
:1001F0004FC083E090E090930F0180930E0148C0C0
:1002000080E290E0FC018081882F90E08170992746
:10021000009739F085E090E090930F0180930E01F4
:1002200037C084E090E090930F0180930E0130C0BE
:1002300080E290E0FC018081882F90E08170992716
:10024000009739F486E090E090930F0180930E01BF
:100250001FC085E090E090930F0180930E0118C0BD
:1002600080E290E0FC018081882F90E081709927E6
:10027000009739F081E090E090930F0180930E0198
:1002800006C086E090E090930F0180930E0100007D
:1002900080910E0190910F018330910569F18430B6
:1002A000910538F48130910549F18230910559F07A
:1002B0001CC08530910521F18530910550F08630C4
:1002C000910569F012C085E290E022E1FC012083F3
:1002D00018C085E290E02CE0FC01208311C085E28B
:1002E00090E021E2FC0120830CC085E290E021E255
:1002F000FC012083000005C0000003C0000001C015
:100300000000DF91CF910895CF93DF93CDB7DEB793
:1003100081E290E0FC01108282E290E02FEFFC018C
:10032000208384E290E02FEFFC01208385E290E0BF
:10033000FC01108210920F0110920E010E94970092
:10034000FDCFEE0FFF1F0024001C0BBE0790F6919F
:08035000E02D0994F894FFCFA1
:0E03580000000002000000006E000000000027
:00000001FF
